:020000040800F2
:10000000D00900209D010008872D0008C51C0008AC
:10001000852D0008010300081D39000800000000BC
:100020000000000000000000000000005D3000083B
:100030000303000800000000A92D00085F3000083D
:10004000B7010008B7010008B7010008B7010008B0
:10005000B7010008B7010008B7010008B7010008A0
:10006000B7010008B7010008B7010008B701000890
:10007000B7010008B7010008B7010008B701000880
:10008000B7010008B7010008B7010008B701000870
:10009000B7010008B7010008B7010008B701000860
:1000A000B7010008B7010008B7010008B701000850
:1000B000B7010008B7010008B7010008D51C000807
:1000C000C91C0008B7010008B7010008B701000803
:1000D000B7010008B7010008B7010008B701000820
:1000E000B7010008B7010008B7010008B701000810
:1000F000B7010008B7010008B7010008B701000800
:10010000B7010008B7010008B7010008B7010008EF
:10011000B7010008B7010008B7010008B7010008DF
:10012000B7010008B7010008B7010008B7010008CF
:10013000B7010008B7010008B7010008B7010008BF
:10014000B7010008B7010008B7010008B7010008AF
:10015000B7010008B7010008B7010008B70100089F
:10016000B7010008B7010008B7010008B70100088F
:10017000B7010008B7010008B7010008000000003F
:10018000B7010008B7010008DFF80CD000F0A6F8AE
:1001900000480047BD3C0008D009002006488047C1
:1001A00006480047FEE7FEE7FEE7FEE7FEE7FEE75C
:1001B000FEE7FEE7FEE7FEE7E13000088901000800
:1001C0002DE9F05F0546002092469B46884606468C
:1001D000814640241BE0284641464746224600F01F
:1001E0006CF853465A46C01A914110D3114618462E
:1001F000224600F053F82D1A67EB01084F462246BD
:100200000120002100F04AF817EB00094E41201EA2
:10021000A4F10104DFDC484631462A46434600F09B
:1002200000B830BCBDE8C09F40EA01039B0703D083
:1002300009E008C9121F08C0042AFAD203E011F825
:10024000013B00F8013B521EF9D27047D2B201E0E7
:1002500000F8012B491EFBD270470022F6E710B5CB
:1002600013460A4604461946FFF7F0FF204610BD24
:1002700030B50B46014600202022012409E021FA76
:1002800002F59D4205D303FA02F5491B04FA02F573
:100290002844151EA2F10102F1DC30BD202A04DB46
:1002A000203A00FA02F1002070479140C2F1200389
:1002B00020FA03F3194390407047202A04DB203AC8
:1002C00021FA02F00021704721FA02F3D040C2F176
:1002D000200291400843194670470000064C074D24
:1002E00006E0E06840F0010394E807009847103406
:1002F000AC42F6D3FFF74CFFF83D0008183E00086B
:10030000FEE7704710B590F825100024022903D0AD
:100310000421C16301241AE001680A6822F00E0278
:100320000A6001680A6822F001020A6090F844102D
:10033000036C01F01C02012101FA02F25A6080F8FC
:100340002510002180F82410816B01B188472046D8
:1003500010BD70B5044600F0F9F80546601C00D0E9
:10036000641C00F0F3F8401BA042FAD370BD0000FB
:100370002DE9F84FDFF898B100234FF0010C4FF052
:10038000030A4FF00F090BF1040EB9E00CFA03F465
:10039000224070D04D68022D01D0122D0ED1DD0803
:1003A00000EB8508D8F820505E07F70E09FA07F62B
:1003B000B5430E69BE402E43C8F8206007685E0052
:1003C00091F804800AFA06F508F00308AF4308FA2A
:1003D00006F848EA0708C0F800804F68012F05D0EA
:1003E000022F03D0112F01D0122F13D1D0F8088083
:1003F000CF6828EA0508B74047EA08078760D0F8C1
:1004000004800F7928EA0408C7F300179F4047EAE1
:1004100008074760D1F804806FEA0807BF0706D1D4
:10042000C76AA743C8F3C0049C403C43C462C46885
:10043000AC438D68B5402543C5604C68E4005ED58B
:10044000344C256E45F001052566246E23F0030526
:1004500004F001040094304C2E19B4689D072F0F4E
:1004600009FA07F5AC43B0F1904F05D02B4DA842E7
:1004700004D101251CE042E0002519E0284DA842E6
:1004800001D1022514E0274DA84201D103250FE038
:10049000254DA84201D104250AE0244DA84201D1EE
:1004A000052505E0224DA84201D1062500E00725DB
:1004B000BD402543B560DBF800405D464E6894437F
:1004C000F60300D514432C60DEF8004075464E68F4
:1004D0009443B60300D514432C600D4D08352C68A9
:1004E0004E689443F60200D514432C60084D0C3539
:1004F0002C684E689443B60200D514432C605B1CF4
:100500000A6832FA03F57FF441AF00F013B8000037
:1005100000040140001002400000014000040048B7
:1005200000080048000C0048001000480014004873
:100530000018004818BCBDE8E08F42694A4042619B
:1005400070470AB181617047816270470148006855
:10055000704700000C00002090F84120202A24D190
:1005600090F84020012A20D0012280F84020242247
:1005700080F841200268136823F0010313600268C9
:10058000136823F480531360026813680B431360ED
:1005900001680A6842F001020A60202180F84110D7
:1005A000002180F84010084670470220704790F8FC
:1005B0004120202A22D190F84020012A1ED0012279
:1005C00080F84020242280F841200268136823F03C
:1005D000010313600268136823F4706343EA012186
:1005E000116001680A6842F001020A60202180F867
:1005F0004110002180F840100846704702207047E3
:100600007047704730B403689A691968D243D405BB
:1006100009D4CC43240606D4446C44F00104446459
:100620004FF48074DC6153050AD4CB431B0607D416
:10063000436C43F00803436404684FF48063E36150
:1006400092050AD4C943090607D4416C41F002015E
:10065000416402684FF40071D161416C11F00B0FDD
:1006600002D030BC01F0D0BB30BC70470268916949
:100670001268436B002B00D018477047704700008A
:1006800070B5040004D094F84100002510B106E0D4
:10069000012070BD84F84050204600F079F92420F4
:1006A00084F841002068016821F001010160606860
:1006B000216820F0706008612068816821F40041A1
:1006C0008160E0680128A06807D040F404402168F8
:1006D0008860E068022803D006E040F40040F6E7B6
:1006E00021684FF40060486020684168114A114356
:1006F00041602068C16821F40041C160D4E904016F
:100700000843A16940EA01202168C860D4E90701D3
:100710000843216808602068016841F00101016018
:100720006564202084F84100256384F8425000204D
:1007300070BD0000008000022DE9FC470026044641
:10074000019690F841001F469246894620287ED1A6
:1007500020688069C043000479D594F840000128DE
:1007600075D0012084F84000242084F8410066649C
:100770004FF02008E068012809D029F4544040F4E3
:10078000205021684860FFF7E1FE05460DE0314941
:1007900049EA010030490840F3E7781C05D0FFF72B
:1007A000D5FE401BB84219D8C7B12168886989694C
:1007B000C0F34010C1F300110843EED020688069F7
:1007C0003B46C043C0064FF000024FF020012046D8
:1007D000009517D502F026F868BB09E084F841803F
:1007E00054F8440F40F0200044F80409267022E039
:1007F0002168C1F81C8084F8418084F840600020A2
:1008000000F02CB802F00EF8A8B921681020C861D9
:100810002168C1F81C800198504512D120684168B8
:1008200041F4804141603B46002220212046009552
:1008300001F0F8FF10B10120E2E708E02168C1F8FB
:100840001C800198401C0190504593D3C6E70220BC
:10085000D6E7000000200002FF2300020CBCBDE828
:10086000F08770472DE9F84F044690F84100DDF815
:1008700028A01F4690468B4620287ED194F8400041
:1008800001287AD0012084F84000FFF75FFE064679
:10089000012200901923D103204601F0C3FFE0BBE1
:1008A000212084F84100102084F84200002565646E
:1008B000C4F8248067856563618D3148FF274FF058
:1008C00080784FF00079FF2903D927853A460090B8
:1008D00039E0618D218500903AE05946204601F0CB
:1008E0008BFF13E002F032F8B8B9606A2168007833
:1008F0008862606A401C6062608D401E6085208D49
:10090000401E80B22085618D01B168B1608D324694
:10091000002851462046E5D100E002E001F0F0FF5A
:10092000D0B1012000F030B853460022802120468B
:10093000009601F077FF0028F3D1608DFF2804D9DD
:1009400027853A4600954346C7E7608D2085009588
:1009500094F828204B46C0E721682020C861216810
:100960004A68084B1A404A6084F8410084F84250B3
:1009700084F840500020D5E7FFE70220D2E70000CE
:100980000020008000E800FE18BCBDE8E08F0000F9
:10099000F0B587B0044614216846FFF75EFC374F78
:1009A0002668374C12220123032104253548BE4214
:1009B0002AD1E66C46F00206E664E66CCDE9023127
:1009C00006F002060596CE01CDE90062049569465F
:1009D000FFF7CEFCA06D40F40010A065A06D0022D2
:1009E00000F40010059011461F2000F045F91F206B
:1009F00000F036F900221146202000F03DF92020B9
:100A000000F02EF907B0F0BD1F4FBE4219D1E66CC1
:100A100046F00206E664E66CCDE9023106F0020615
:100A200005964FF44066CDE9006204956946FFF7EC
:100A30009FFCA06D40F48000A065A06D00F48000D4
:100A400019E012488642DDD1E06C40F00400E06419
:100A5000E06C00F0040005908DE80E00CDE9031570
:100A600069460B48FFF784FCA06D40F40000A065C8
:100A7000A06D00F400000590C4E7000000540040A1
:100A8000001002400004004800580040005C004094
:100A900000080048704770472DE9F84F044690F869
:100AA00041009A4616460F4620287DD167B35EB3B3
:100AB00094F84000012877D0012084F84000FFF727
:100AC00045FD0546222084F841004FF0200984F8B6
:100AD00042904FF00008C4F8448067626685C4F80D
:100AE00034802068416821F4004141605346424609
:100AF00008212046009501F095FE48B12068416824
:100B000041F40041416028E04FF40070606424E04B
:100B100021680820C8614103534601222046009500
:100B200001F080FE0028E9D123E000BF01F0A6FE1D
:100B30000028206814D0416841F4004141602068D9
:100B40008169C943490708D4406A616A0870606ACC
:100B5000401C6062608D401E6085012000F031B84D
:100B6000406A616A0870606A401C6062608D401E65
:100B70006085608D2A46002851462046D6D101F076
:100B8000BFFE0028BAD120684E46C0F81C90012252
:100B90005346D1032046009501F044FE0028ADD114
:100BA00054F8230B416800E009E041F40041416042
:100BB000A67784F81F8084F81D800020CEE70220ED
:100BC000CCE718BCBDE8E08F02480168491C016011
:100BD000704700000C000020094810B5016800248F
:100BE00041F480710160032000F066F8002000F0FD
:100BF00009F808B1012401E000F01CF8204610BDFE
:100C00000020024070B5054609484FF47A7100246F
:100C10000068B0FBF1F000F0A9FD08B1012404E088
:100C200000222946501E00F027F8204670BD000023
:100C300010000020094808B5016E41F0010101666D
:100C4000016E01F001010091816D41F080518165DB
:100C5000806D00F08050009008BD00000010024040
:100C600000F01F02012191404009800000F1E020C6
:100C7000C0F8001170470000F0B40E4B1B680C4622
:100C8000C3F30223C3F10705042D00D90425191D60
:100C9000072901D2002300E0DB1E012606FA05F138
:100CA000491E214099409E40761E16403143F0BCBB
:100CB00002F06AB80CED00E0064900F0070208688F
:100CC0004FF6FF03184040EA0220034A1043086031
:100CD000704700000CED00E00000FA051649B0F581
:100CE000007F0868C0F3412009D0022805D00868B9
:100CF00020F4C06040F48060086000207047012844
:100D0000FBD0086820F4C06040F4007008600B4815
:100D10003222006850430A4AB0FBF2F0401C00E067
:100D2000401E4A69520501D50028F9D1486940059D
:100D3000E3D5032070470000007000401000002041
:100D400040420F000248006800F4C0607047000095
:100D5000007000402DE9F84F044600270088E54D5B
:100D60003E46010504F1200B1DD5606E78B1B0F54B
:100D7000800F11D0B0F5000F04D0B0F5400F22D095
:100D800001270FE0E86840F48030E8601BE00021B4
:100D9000201D02F00BF803E00021584602F09CF8F9
:100DA000070010D03E462088C00426D5A06EC0B1F2
:100DB000B0F1807F1AD0B0F1007F0DD0B0F1407F4C
:100DC00019D0012718E0D5F88800616E20F44000A2
:100DD0000843C5F88800E6E7E86840F48030E8603A
:100DE00009E00021201D01F0E1FF03E00021584649
:100DF00002F072F80746F7B13E46206880033AD504
:100E0000A86D4FF00008C00009D4A86D40F08050D4
:100E1000A865A86D4FF0010800F080500090DFF841
:100E2000D8A2DAF8001041F48071CAF80010FFF778
:100E30008DFB814610E0D5F88800A16E20F040704F
:100E40000843C5F88800D8E7FFF780FBA0EB09004E
:100E5000022801D9032705E0DAF80000C005F3D520
:100E6000002F7CD04FEA0706B8F1000F03D0A86D21
:100E700020F08050A8652078C00707D0D5F88800FA
:100E8000A16B20F003000843C5F888002078800794
:100E900007D5D5F88800E16B20F00C000843C5F8B1
:100EA00088002078400707D5D5F88800216C20F00D
:100EB00030000843C5F888002078000707D5D5F82A
:100EC0008800616C20F0C0000843C5F888002078D5
:100ED000C00607D5D5F88800A16C20F440700843FF
:100EE000C5F888002078800607D5D5F88800E16C21
:100EF00020F440600843C5F888002088800507D5A5
:100F0000D5F88800E16D20F440200843C5F888003A
:100F10002088400507D5D5F88800216E20F44010C0
:100F20000843C5F888002078400607D5D5F8880022
:100F3000216D20F440500843C5F888002078000651
:100F400007D5D5F88800616D20F440400843C5F806
:100F500088002088C00509D5D5F8880000E01CE08D
:100F6000A16D20F440300843C5F8880020884FF078
:100F7000006780044FF080684FD5D5F88800E16E97
:100F800020F040600843C5F88800E06EB8423CD1CC
:100F9000E86840F48010E8603FE0D5F8900010F475
:100FA000407015D0D4F88410814211D0D5F890004B
:100FB000D5F8901020F4407041F48031C5F89010BD
:100FC000D5F8901021F48031C5F89010C5F8900044
:100FD000C00710D0FFF7BAFA074641F2883906E099
:100FE000FFF7B4FAC11B494501D903263CE7D5F800
:100FF00090008007F4D5D5F89000D4F8841020F440
:1010000040700843C5F890002EE7404505D1012106
:10101000201D01F0CBFE00B106462068000317D565
:10102000D5F88800216F20F040600843C5F888009B
:10103000206FB84204D1E86840F48010E86007E00F
:10104000404505D10121201D01F0B0FE00B106464A
:101050002068400317D5D5F88800616F20F0406004
:101060000843C5F88800606FB84204D1E86840F4CE
:101070008010E86007E0404505D10121201D01F006
:1010800095FE00B10646208840041AD5D5F88800A0
:10109000A16F20F040500843C5F88800A06FB0F160
:1010A000805F03D0B0F1005F05D00AE00221201D6F
:1010B00001F07CFE03E00221584601F00DFF00B173
:1010C00006462088000407D5D5F88800E16F20F097
:1010D00080400843C5F888002068C00307D555F84C
:1010E000880FD4F8801020F0004008432860304674
:1010F00000F004B8001002400070004018BCBDE8C9
:10110000E08F00002DE9F0470F46050058D03F4E14
:10111000306800F00700B84209D2306820F00700BC
:1011200038433060306800F00700B84248D1287872
:10113000374CC0072CD06868032811D0022812D081
:10114000216898B1490500293ADAA16821F0030124
:101150000143A160FFF7FAF9804641F2883910E0B7
:1011600021688901EFE721688903ECE78907EAE74D
:10117000FFF7ECF9A0EB0801494502D90320BDE8CF
:10118000F087A068696800F00C00B0EB810FEFD128
:101190002878800705D5A068A96820F0F0000843EA
:1011A000A060306800F00700B8420BD9306820F02A
:1011B000070038433060306800F00700B84201D0C3
:1011C0000120DCE72878400705D5A068E96820F40D
:1011D000E0600843A0602878000706D5A068296968
:1011E00020F4605040EAC100A06000F03BF8A16824
:1011F000084AC1F30311515C01F01F01C8400649C0
:101200000860BDE8F0470020FFF7FCBC002002406A
:1012100000100240B03D00081000002005480649BB
:1012200000688968054AC1F30221515C01F01F0181
:10123000C84070471000002000100240F03D000838
:101240000548064900688968054AC1F3C221515C16
:1012500001F01F01C840704710000020001002403C
:10126000F03D000870B52549002318468A68CC680F
:1012700012F00C0204F00306214C4FEA640509D079
:101280000C2A05D0042A26D0082A00D1284670BD91
:10129000012E10D10B681B0704D4D1F89430C3F38E
:1012A000032302E00B68C3F30313164E56F82330F2
:1012B0007AB10C2AEBD1C86800F00302C868C0F309
:1012C0000210401C022A08D0032A09D0B3FBF0F018
:1012D00008E0184670BD204670BDB4FBF0F001E098
:1012E000B5FBF0F0CA68C968C2F306225043C1F3E7
:1012F0004161491C4900B0FBF1F070BD0010024093
:101300000024F400C03D00082DE9F84305007CD01E
:10131000FD4CA06800F00C06E06800F00307287898
:10132000C00661D576B10C2E01D1012F0AD0A86973
:101330000028206878D040F001002060FFF706F90F
:10134000804659E02068800702D5A8690028DED0D1
:10135000286A2168090703D5216801F0F00104E03B
:10136000D4F89410F02202EA1111884215D901F044
:1013700037FE002849D1206840F00800206020682E
:10138000296A20F0F000084320606068E96920F4D1
:101390007F4040EA0120606015E0206840F00800CE
:1013A00020602068296A20F0F0000843206060680F
:1013B000E96920F47F4040EA01206060286A01F07A
:1013C0000FFE0028D6D1FFF74DFFA168CF4AC1F329
:1013D0000311515C01F01F01C840CD490860002095
:1013E000FFF710FC00287DD12FE000BFFFF7AEF81B
:1013F000A0EB0800022876D820688007F6D5206880
:1014000040F008002060206801E0BBE00CE0296AA1
:1014100020F0F000084320606068E96920F47F4014
:1014200040EA0120606010E020F001002060FFF73A
:101430008DF8804606E000BFFFF788F8A0EB0800B3
:101440000228D8D820688007F6D42878C00740D072
:10145000082E18D00C2E01D1032F14D06868B0F5D7
:10146000803F17D0B0F5A02F206817D020F480302F
:101470002060206820F4802020606868E0B1FFF7D9
:1014800065F8804614E02068800322D5686800284B
:1014900078D01EE0206840F48030EDE740F48020F2
:1014A0002060F7E7FFF752F8A0EB08006428A2D805
:1014B00020688003F6D50CE0FFF748F8804605E089
:1014C000FFF744F8A0EB0800642894D82068800354
:1014D000F6D4287880073BD5042E11D00C2E04D1E9
:1014E000022F01E036E1A1E00AD0E8680028206878
:1014F0001ED040F480702060FFF728F807460CE00B
:10150000206840050CD5E8680028C1D008E000BF7D
:10151000FFF71CF8C01B022893D820684005F7D5B8
:101520006068297C20F0F85040EA016060600FE0BC
:1015300020F480702060FFF709F8074605E000BF3F
:10154000FFF704F8C01B022870D820684005F7D4C4
:101550002878000729D568690028D4F8940012D0AB
:1015600040F00100C4F89400FEF7F0FF074604E0E5
:10157000FEF7ECFFC01B022858D8D4F8940080076F
:10158000F6D512E0EDE020F00100C4F89400FEF77B
:10159000DDFF074605E000BFFEF7D8FFC01B0228AD
:1015A00044D8D4F894008007F6D42878400768D54A
:1015B000A06D0027C00008D4A06D40F08050A06549
:1015C000A06D012700F08050009052480168C905C5
:1015D00012D40168814641F480710160FEF7B6FFC4
:1015E000804605E0FEF7B2FFA0EB080002281DD8F8
:1015F000D9F80000C005F5D5A868012817D005283E
:10160000D4F8900018D020F00100C4F89000D4F86D
:10161000900020F0040000BFC4F89000A86841F2D8
:101620008839D0B1FEF792FF804611E06BE0D4F824
:10163000900040F00100EFE740F00400C4F8900093
:10164000F5E700BFFEF782FFA0EB080149455AD835
:10165000D4F890008007F5D50EE0FEF777FF8046BE
:1016600006E000BFFEF772FFA0EB0801494570D805
:10167000D4F890008007F5D41FB1A06D20F0805001
:10168000A065A86AF0B30C2E6BD00228206820F069
:101690008070206004D0206810F0205F47D04AE0BE
:1016A000FEF754FF064604E0FEF750FF801B0228B9
:1016B0004FD820688001F7D4286BE96A0001103800
:1016C0000843696BAA6B0902120941EA42410843C7
:1016D000A98F114A490802EB4151084395F840107F
:1016E0004908120102EB41610843E060206840F0C4
:1016F00080702060E06840F08070E060FEF726FFB8
:10170000054610E02BE024E000100240B03D000848
:1017100010000020007000400000E0FFFEF716FF00
:10172000401B022815D820688001F7D517E0E06833
:1017300020F00300E060E0680B490840E060FEF73D
:1017400005FF054608E000BFFEF700FF401B02282A
:1017500002D90320BDE8F88320688001F4D400207A
:10176000F8E70120F6E70000FFFFEEFE10B5401E8F
:10177000B0F1807F01D3012010BD4FF0E024606103
:101780000F21601701F000FB0020A06107202061FD
:10179000002010BD30B590F83C20012A3AD001223B
:1017A00080F83C20CA688B6822F440721A434B6868
:1017B00022F480621A430B6822F400621A430B6918
:1017C00022F480521A434B6922F400521A438B6A66
:1017D00022F480421A430B8B22F4702242EA034225
:1017E0000D4D03680024AB4202D00C4DAB420CD12E
:1017F0008D8C22F4700242EA0552CD6922F080728B
:101800002A43096A22F000720A435A6480F83C4075
:10181000002030BD022030BD002C014000340140CA
:1018200070B590F83C20012A24D0012480F83C4077
:10183000022280F83D200268536895680E4EB2423D
:1018400002D00E4EB24203D123F470064B683343EC
:1018500023F070060B688968334325F0800529431F
:1018600053600268916080F83D40002180F83C1090
:10187000084670BD022070BD002C014000340140BC
:10188000F0B587B0044614216846FEF7E6FC344EF6
:10189000216800243348022501234FF09042B142D1
:1018A00011D1C16C41F00101C164C06C694600F006
:1018B000010005904FF470600090CDE90154CDE92E
:1018C0000343104632E00326B1F1804F1FD0264B70
:1018D000264F99422ED1C16C41F00101C164C16C07
:1018E00001F001010591C16C41F00201C164C06CBD
:1018F000694600F002000590C0200090CDE9015437
:101900001046CDE90345FEF733FD009620E0C16C9B
:1019100041F00101C164C06C0096CDE9015400F0B2
:101920000100CDE90430694603941046FEF720FD1E
:1019300007B0F0BD0E4A9142FAD1C16C41F00201EC
:10194000C164C06C00F0020005904FF4107000906C
:10195000CDE9015469463846CDE90345E6E7000084
:10196000002C014000100240000400400004004828
:101970000008004070B5044690F83C000D46012870
:101980000ED0012684F83C60022084F83D000C2A29
:1019900045D007DC5AB1042A1BD0082A78D12CE0A4
:1019A000022070BD102A4ED0142A71D15DE020684B
:1019B00001F018FC2068816941F00801816120680C
:1019C000816921F004018161206881692A691143DC
:1019D00011E0206801F054FC2068816941F4006145
:1019E00081612068816921F4806181612068816959
:1019F0002A6941EA022181614AE0206801F088FCFD
:101A00002068C16941F00801C1612068C16921F005
:101A10000401C1612068C1692A69114311E020688D
:101A200001F0BEFC2068C16941F40061C161206819
:101A3000C16921F48061C1612068C1692A6941EAF4
:101A40000221C16124E0206801F0E4FC2068416DBE
:101A500041F0080141652068416D21F004014165B4
:101A60002068416D2A69114311E0206801F00AFDE8
:101A70002068416D41F4006141652068416D21F4A9
:101A8000806141652068416D2A6941EA0221416512
:101A900084F83D60002084F83C0070BD10B504005F
:101AA00003D094F83D0010B107E0012010BD0020E4
:101AB00084F83C00204600F00DF8022084F83D0038
:101AC000211D206801F02EFB012084F83D0000203C
:101AD00010BD000008B5174A01681748914207D1A8
:101AE000016E41F400610166006E00F4006014E0D4
:101AF000B1F1804F0AD0114A914210D1816D41F06D
:101B000002018165806D00F0020006E0816D41F008
:101B100001018165806D00F00100009008BD084A58
:101B20009142FBD1816D41F004018165806D00F02F
:101B30000400F2E7002C01400010024000040040C5
:101B40000008004010B5040003D094F8710010B1F3
:101B500007E0012010BD002084F87000204600F04E
:101B600027F8242084F871002068016821F0010121
:101B70000160204601F050FD0128EBD0606A10B1F1
:101B8000204601F0B7FC2068416821F49041416093
:101B90002068816821F02A0181602068016841F095
:101BA000010101602046BDE8104001F007BD0000C2
:101BB00010B586B0044614216846FEF74EFB134963
:101BC000206888421FD11248816D41F4003181653F
:101BD000816D01F400310591C16C41F00101C164D6
:101BE000C06C694600F0010005900C2000900220B6
:101BF00001900020029003200390072004904FF0F2
:101C00009040FEF7B5FB06B010BD00000044004058
:101C1000001002402DE9F843044690F871001F4679
:101C200016460D4620284BD1C5B1BEB194F87000C0
:101C3000012845D0012084F870004FF00008C4F856
:101C40007480212084F87100FEF780FCA4F85060B5
:101C50008146A4F852604FF4805615E00120BDE89B
:101C6000F8838021204601F027FED8B9A068B04251
:101C700001D12069C0B115F8010B21680885B4F8BD
:101C80005200401EA4F85200B4F852004B464FF0E8
:101C9000000200970028E4D14FF04001204601F0F7
:101CA0000BFE30B10320DAE735F8020BC0F3080071
:101CB000E3E7202084F8710084F870800020CEE7EC
:101CC0000220CCE7FEE700000148FEF79BBC0000C5
:101CD000140000200148FEF7C9BC000014000020D9
:101CE00010B5806A0021826B9163C26B916390F89A
:101CF0004110602902D0FEF7C1FC10BD202180F800
:101D00004110FEF77DFC10BD10B50022CC074FF04E
:101D1000280306D090F84140422233EA040400D060
:101D2000F2228C0707D590F8414042F04402A343C9
:101D300001D042F0B0024B0701D542F0B8021123A6
:101D40008B4301D142F0900212238B4301D142F028
:101D50006002006801689143016010BD01688A69F2
:101D6000D243920701D400228A6200688169C94384
:101D7000C90703D0816941F00101816170472DE9F4
:101D8000F041044690F841002821814320684FF03B
:101D900000054FF0080304D0C36184F84050BDE84B
:101DA000F0818169C1F300478169FE2202EA114690
:101DB0008168C1F30902C168D4F80CC001F0FE01CA
:101DC000BCF1020F17D14FF0060C06F006060CEA24
:101DD000D21C66450ED1A16C491CA164A16C0229DC
:101DE000DDD1A564C36184F8405039462046FEF732
:101DF00008FCD4E70E4604212046FFF785FF84F84F
:101E000040503246F1E7000070B5044690F84100BA
:101E1000002584F84250314AE2626585626C0A43CB
:101E200062642026282825D0292823D02A2821D0DA
:101E300007212046FFF768FF94F84100602801D091
:101E400084F8416025636563206801684A04244979
:101E500002681AD522F480420260A06B002833D0B9
:101E6000816384F84050A06BFEF74CFA00282BD019
:101E7000A06B1CE003212046FFF746FF282084F8D2
:101E80004100256317486063DEE7120413D502683A
:101E900022F400420260E06B002815D0816384F8D0
:101EA0004050E06BFEF72EFA00280DD0E06B816BFE
:101EB000BDE87040084794F84100602805D084F8D8
:101EC00040502046FEF7DAFB70BD84F8416084F88C
:101ED00040502046FEF794FB70BD00000000FFFF5D
:101EE000E11C0008D926000870B504461548E062D8
:101EF00000252563202084F8410084F84250C8431F
:101F00006563400711D42068406A616A0870606A9E
:101F1000401C6062208D40B1401E2085608D401EB7
:101F20006085606C40F00400606407212046FFF784
:101F3000EBFE21681020C86184F840502046FEF76F
:101F400090FC70BD0000FFFF2DE9F04104460068E1
:101F50000E4607682025C56121680820C861072151
:101F60002046FFF7D1FE2068416841F400414160FE
:101F7000206841682D4A114041602046FFF7EEFE7F
:101F8000F843410401D4A06B02E0000404D4E06BE8
:101F900010B1006840686085F04340070DD42068A8
:101FA000406A616A0870606A401C6062208D20B1DE
:101FB000401E2085608D401E6085608D18B1606C6C
:101FC00040F0040060640020206384F842006063F5
:101FD000616C69B1616C2046FFF716FF94F841000F
:101FE000282811D131462046BDE8F041FFF77CBFDB
:101FF000E26A0F498A4209D0E16284F8415084F8CC
:1020000040002046FEF72DFCBDE8F08194F8411019
:1020100084F84150222984F84000204602D0FEF77F
:102020003AFDF1E7FEF736FDEEE7000000E800FEBE
:102030000000FFFF70B50025044680F8425090F87C
:1020400041102820292911D094F841102A290CD1B7
:1020500084F841002220206302212046FFF754FE2D
:1020600084F840502046FEF715FD70BD84F841000D
:102070002120206301212046FFF746FE84F84050CE
:102080002046FEF708FD70BD2DE9F04104460068CA
:1020900090460E468069C043C00633D400252027F1
:1020A00020688069C043800615D5701CF8D0FEF703
:1020B0004DFAA0EB0800B04201D8002EF0D154F840
:1020C000440F40F0200044F804096770A5702570A3
:1020D0000120BDE8F08121681020C8612068C76137
:1020E0002046FFF73BFE54F8440B4168064A114076
:1020F0004160206840F0040044F820096777A57724
:102100002577E5E70020E4E700E800FE0FB41CB502
:1021100000248DF80400601E8DF805100090402109
:10212000022301AA06A8FEF79DFB00B10224204667
:102130001CBC5DF814FB0FB44FF0FF332DE9F04FDA
:10214000A5B08B4682464FF000094FF001080C27DE
:102150000D26122513244021052230A8FEF7ECFAA3
:1021600028B1012025B0BDE8F00F5DF814FB2A224C
:1021700030A911A8FEF758F8BDF8EA00ADF86E00D6
:102180003B981C903C981D903DA90D221EA82491BF
:10219000FEF74AF89DF801018DF885009DF80201CF
:1021A0008DF886004198229042982390442213A9EA
:1021B0006846FEF739F8DDE9112300214846FFF7AC
:1021C000A5FF0A20FEF7C5F82A2230A911A8FEF7BC
:1021D0002BF8BDF8EA00ADF86E003B981C903C98D7
:1021E0001D900D221EA82499FEF71EF89DF80101EE
:1021F0008DF885009DF802018DF8860041982290A7
:1022000042982390442213A96846FEF70DF8DDE9B1
:10221000112300214046FFF779FF0A20FEF799F8C5
:102220002A2230A911A8FDF7FFFFBDF8EA00ADF89A
:102230006E003B981C903C981D900D221EA824997E
:10224000FDF7F2FF9DF801018DF885009DF8020170
:102250008DF886004198229042982390442213A939
:102260006846FDF7E1FFDDE91123FF213846FFF75E
:102270004DFF0A20FEF76DF82A2230A911A8FDF7BC
:10228000D3FFBDF8EA00ADF86E003B981C903C9877
:102290001D900D221EA82499FDF7C6FF9DF801018F
:1022A0008DF885009DF802018DF8860041982290F6
:1022B00042982390442213A96846FDF7B5FFDDE953
:1022C0001123FF213046FFF721FF0A20FEF741F8D6
:1022D0002A2230A911A8FDF7A7FFBDF8EA00ADF842
:1022E0006E003B981C903C981D900D221EA82499CE
:1022F000FDF79AFF9DF801018DF885009DF8020118
:102300008DF886004198229042982390442213A988
:102310006846FDF789FFDDE9112300212846FFF714
:10232000F5FE0A20FEF715F82A2230A911A8FDF7BC
:102330007BFFBDF8EA00ADF86E003B981C903C981E
:102340001D900D221EA82499FDF76EFF9DF8010136
:102350008DF885009DF802018DF886004198229045
:1023600042982390442213A96846FDF75DFFDDE9FA
:10237000112300212046FFF7C9FE00218AF8001032
:102380008BF80010EEE600002DE9F0470026771EDE
:1023900088B00C46012909D19EA1684601F0C0FA17
:1023A00082B23B4669469D48FFF734FC3B460B2210
:1023B00004A99B48FEF770FB30B1022879D00328AE
:1023C00078D0012877D021E14FF47A75012C0FD114
:1023D00094A1684601F0A4FA82B22B4669468F4860
:1023E000FFF718FC2B460B2204A98C48FFF712FCC0
:1023F0009DF81000DFF83C920DF1100837280AD044
:1024000038282FD0392857D040287FD057287BD064
:10241000012C7AD0E3E00027012C0FD186A1684679
:1024200001F07EFA82B22B4669467C48FFF7F2FB48
:102430002B460B2204A97948FFF7ECFB9DF81110FD
:10244000002001EBC101424609EB810113180C1871
:102450009B78401C84F820300828F7DB9DF81A0090
:10246000C855D3E008274FF0010A012C0FD176A1FF
:10247000684601F055FA82B22B4669466748FFF775
:10248000C9FB2B460B2204A96448FFF7C3FB9DF848
:102490001130002003EBC303424609EB83011318FC
:1024A000C4190C449B78401C84F820300828F6DBC3
:1024B00052E096E099E09CE010274FF0020A012CD0
:1024C0000FD165A1684601F02BFA82B22B4669460E
:1024D0005248FFF79FFB2B460B2204A94F48FFF7FA
:1024E00099FB9DF81130002003EBC303424609EB32
:1024F00083011318C4190C449B78401C84F82030C5
:102500000828F6DB28E001E02BE058E018274FF020
:10251000030A012C0FD154A1684601F001FA82B2DE
:102520002B4669463D48FFF775FB2B460B2204A955
:102530003A48FFF76FFB9DF81130002003EBC3030F
:10254000424609EB83011318C4190C449B78401CC4
:1025500084F820300828F6DB9DF81A2001F80A20BC
:1025600054E0012C1FD144A1684601F0D9F982B290
:102570002B4669462948FFF74DFB2B46032204A949
:102580002648FFF747FB41A1684601F0C9F982B22E
:102590002B4669462148FFF73DFB2B460B2204A939
:1025A0001E48FFF737FB3E4D4FF480542146284626
:1025B000FDF7C3FF21462846FDF7BFFF26E039A1FE
:1025C000684601F0ADF982B23B4669461348FFF711
:1025D00021FB3B46012204A91048FFF71BFB0526FF
:1025E00014E0012C12D133A107E0012C0ED134A14B
:1025F00003E00126012C09D135A1684601F090F9CC
:1026000082B23B4669460548FFF704FB08B03046F6
:10261000BDE8F0874D61696E00000000F801002000
:10262000140000200A536C61766552656369657613
:1026300065000000700200200A5265636970652021
:10264000307833373A2000000A526563697065209C
:10265000307833383A2000000A526563697065208B
:10266000307833393A2000000A526563697065207A
:10267000307834303A2000000A4D616B6520447296
:10268000696E6B20307835373A20000052656369F7
:102690007065436F6E74656E74733A2000000000BD
:1026A000000400480A4572726F725265676973745C
:1026B000657200000A48414C5F42555359000000C2
:1026C0000A48414C5F54494D454F555400000000A5
:1026D0000A4552524F5200002DE9F0410446C06AAB
:1026E0000F4694F8401001291DD0012184F84010B4
:1026F000FE43404BF1064FF0807C6FEA020531D477
:10270000E9062FD4628D102182B12268D161616CFB
:1027100041F00401616408B160455ED1616C2046FE
:10272000FFF772FB59E00220BDE8F08194F84120E8
:10273000282A02D1B0F1007F04D094F84120292A40
:1027400005D00CE039462046FFF7CEFB45E0984225
:1027500005D02068C1612046FFF700FB3AE0206801
:10276000C1613AE0710715D4690713D4618D61B175
:102770002168496A626A1170616A491C6162218D2F
:10278000491E2185618D491E6185618D29BB984255
:1027900020D122E0310706D4290704D43946204647
:1027A000FFF7EDFA19E0B10717D4A90715D4618D29
:1027B00069B1606A216800788862606A401C606262
:1027C000608D401E6085208D401E208505E060459F
:1027D00000D010B92046FFF72DFCB00605D4A8069E
:1027E00003D439462046FFF7AFFB002084F84000B1
:1027F0009AE700000000FFFFF0B50568059C6868D7
:102800004FF48066064FC1F3090106EA545641EAC7
:1028100002413E431943B043214308436860F0BD81
:10282000FF63FF032DE9F0411D4617460E4604469F
:10283000DDF8188008E0681C06D0FDF787FEA0EBE5
:102840000800A8420BD855B12068806936EA00001C
:1028500012D00020B842EED00020BDE8F08154F83C
:10286000440F40F0200044F804092020607000204C
:10287000A07020700120F0E70120EBE72DE9F04186
:10288000002690460F460446202525E0424639465C
:102890002046FFF7F9FB78BB20688069C0438006BB
:1028A00013D420688169C943490701D4218DC1B976
:1028B000C56154F8440B4168104A1140416044F826
:1028C00020696577A677267716E0FDF73FFEA0EB37
:1028D0000800B84208D83FB120688069C04340076B
:1028E000D4D40020BDE8F08154F8440F40F020001B
:1028F00044F80409657026700120F3E700E800FE43
:1029000070B516460D4604460DE03246294620466F
:10291000FFF7BAFB08B1012070BDFDF717FE801B61
:10292000A84207D835B120688069C0438006ECD43E
:10293000002070BD54F8440F40F0200044F8040912
:10294000202060700020A0702070E4E770B516466B
:102950000D4604460FE0324629462046FFF794FB19
:1029600008B1012070BD681C05D0FDF7EFFD801B8C
:10297000A84207D835B120688069C0438007EAD4EF
:10298000002070BD54F8440F40F0200044F80409C2
:10299000202060700020A0702070E2E72DE9F04355
:1029A00087B014216846FDF758FC3148C16C41F0EE
:1029B0000401C164C16C01F004010591C16C41F0D6
:1029C0008001C164C16C01F080010591C16C41F0CE
:1029D0000101C164C16C01F001010591C16C41F0BC
:1029E0000201C164C06C4FF0904700F002000590F6
:1029F000002220213846FDF7A4FDDFF878804FF44F
:102A00004056002231464046FDF79BFD4FF40050F2
:102A1000009019480024CDE90104DFF86090694670
:102A20004846FDF7A5FC202000900125CDE9015482
:102A3000694638460394FDF79BFC0096CDE90154A6
:102A4000694640460394FDF793FCE803CDE9000492
:102A5000694640460294FDF78BFC4020CDE9000416
:102A6000694648460294FDF783FC07B0BDE8F08351
:102A70000010024000040048000021100008004837
:102A80000F4810B50D4901600E4941606621816013
:102A90000121C1600021016141618161C1614FF487
:102AA00000310162FDF7ECFD00210548FDF754FD02
:102AB000BDE8104000210248FDF779BD00540040F8
:102AC00014000020EC9C90100E4810B50C490160D9
:102AD0000D49416000210122C0E9021201614161FA
:102AE0008161C1610162FDF7CBFD00210548FDF761
:102AF00033FDBDE8104000210248FDF758BD00003D
:102B00000058004060000020EC9C90100E4810B56A
:102B10000C4901600D49416000210122C0E9021207
:102B2000016141618161C1610162FDF7A9FD00217F
:102B30000548FDF711FDBDE8104000210248FDF7F2
:102B400036BD0000005C0040AC000020EC9C901002
:102B500010B596B00024129413941C216846149466
:102B6000FDF77BFB2C2107A8FDF777FB24482349C1
:102B7000016040F20311C0E90114FF21C0E9031410
:102B800044618461FEF78AFF1294139412A91C48D1
:102B90001494FEF745FE6020CDE9000402940394EE
:102BA000049405940022694615480694FEF7E2FE57
:102BB000042269461248FEF7DDFE082269461048E5
:102BC000FEF7D8FE0C2269460D48FEF7D3FE0794A7
:102BD000089409944FF400500A94CDE90B40000387
:102BE000CDE90E400D94109407A905481194FEF705
:102BF000D1FD0348FEF744FE16B010BD002C014085
:102C0000F800002010B58AB00024079408941C2115
:102C100068460994FDF721FB13484FF0804101609D
:102C200040F20311C0E90114FF21C0E903148461DB
:102C3000FEF734FF079407A90B480994FEF7F0FD4F
:102C40006020CDE9000402940022694606480494FD
:102C5000FEF790FE042269460348FEF78BFE024809
:102C6000FEF70EFE0AB010BD3801002010B58AB084
:102C70000024079408941C2168460994FDF7EDFA96
:102C800019481849016040F20311C0E90114FF21FD
:102C9000C0E903148461FEF701FF079407A91248F5
:102CA0000994FEF7BDFD6020CDE9000402940022E6
:102CB00069460D480494FEF75DFE042269460A4801
:102CC000FEF758FE082269460748FEF753FE0C221D
:102CD00069460548FEF74EFE0348FEF7D1FD0AB0EF
:102CE00010BD0000000400407801002010B58AB03B
:102CF0000024079408941C2168460994FDF7ADFA56
:102D000014481349016040F20311C0E90114FF2186
:102D1000C0E903148461FEF7C1FE079407A90D48BA
:102D20000994FEF77DFD6020CDE9000402940022A5
:102D3000694608480494FEF71DFE0C2269460548C2
:102D4000FEF718FE0348FEF79BFD0AB010BD000019
:102D500000080040B80100200948084901604FF40C
:102D6000E1314160002181600C22C160C0E90412A0
:102D70008161C16101624162FEF7E4BE004400402E
:102D8000F8010020FEE770470907090E002806DA5F
:102D900000F00F0000F1E02080F8141D704700F1F2
:102DA000E02080F800147047704700002DE9F041E2
:102DB000444C05468846E0680026810728680DD007
:102DC000E16801F00301814216D1A8B1E0686968A9
:102DD000C0F30210401C88420ED120E0012804D02C
:102DE000022805D0032807D108E02168890701E0FF
:102DF00021684905002907DB01265FE02168890376
:102E000002D421684903F5E7E1686A686FF00F03AF
:102E100021F0730103EB021211430143E1602068CA
:102E200020F080602060FDF791FB074605E000BFC1
:102E3000FDF78CFBC01B022837D820680001F7D4AF
:102E4000B8F1000F18D0B8F1010F1ED0287D4FF057
:102E50007E41400801EB4060A96840EA01202169F9
:102E6000194A114008432061206840F080602060CA
:102E7000FDF76CFB07461AE0A868E968000209093B
:102E800040EA41402169114AEBE7288A104940088D
:102E900001EB4050A96840EA012021690D4AE0E7B2
:102EA000FDF754FBC01B022801D9032606E0206869
:102EB0000001F5D52069A969084320613046BDE8C5
:102EC000F081000000100240FF80FFF9FF80FDFF4D
:102ED0000000E0FFFF809FFF2DE9F0413D4C0646DA
:102EE0008846E0680025810730680DD0E16801F070
:102EF0000301814216D1A8B1E0687168C0F30210E5
:102F0000401C88420ED120E0012804D0022805D0C0
:102F1000032807D108E02168890701E021684905F5
:102F2000002907DB012551E02168890302D42168CB
:102F30004903F5E7E16872686FF00F0321F0730150
:102F400003EB021211430143E160206820F080503E
:102F50002060FDF7FBFA074605E000BFFDF7F6FA33
:102F6000C01B022829D820688000F7D4B8F1000FD0
:102F700015D0307C4FF07E41400801EB4060B168D5
:102F800040EA01206169144A1140084360612068E9
:102F900040F080502060FDF7D9FA07460FE0B06896
:102FA000F1680002090940EA414061690B4AEBE718
:102FB000FDF7CCFAC01B022801D9032506E02068E2
:102FC0008000F5D560697169084360612846BDE8F5
:102FD000F081000000100240FF80FFF9FF80FDFF3C
:102FE000F8B51C4D06460024A86DC00002D5FDF7BB
:102FF000A9FE0DE0A86D40F08050A865A86D00F016
:1030000080500090FDF79EFEA96D21F08051A965CA
:10301000B0F5007F04D0802E07D94FF003040AE0FA
:10302000802E08D9A02E01D804E001D1022402E0AC
:10303000702E00D101240848016821F007012143C6
:103040000160006800F00700A04201D00120F8BD37
:103050000020F8BD00100240002002407047FDF73C
:10306000B3BD10B5B8B0442122A8FDF7F6F814217D
:1030700033A8FDF7F2F888216846FDF7EEF8022044
:10308000C10125911021229026912C900121CDE99A
:103090002D010A212F910721CDE93010329022A86D
:1030A000FEF732F90F20002433900320CDE93404D9
:1030B0003694042133A83794FEF724F84FF4E170D6
:1030C0000F9400904FF48050CDE914046846169494
:1030D000FDF740FE4FF40070FDF700FE38B010BD64
:1030E0000D48016841F4700101600C48016841F02D
:1030F00001010160002181600268094B1A400260F1
:103100008214C260026822F4802202608161024956
:10311000C00380390860704788ED00E0001002406D
:10312000FFFFF6EA2DE9F0470268264B264D274EB1
:10313000274F284C4FF0804A984209D0504507D07D
:10314000A84205D0B04203D0B84201D0A04204D179
:1031500022F0700C4A6842EA0C02DFF87CC0DFF80B
:103160007C80DFF87C9098420FD050450DD0A8426B
:103170000BD0B04209D0B84207D0A04205D060457C
:1031800003D0404501D0484503D122F44075CA68B8
:103190002A434D6922F080022A4302608A68C26293
:1031A0000A688262984207D0A04205D0604503D0E9
:1031B000404501D0484501D10969016301214161C0
:1031C000BDE8F087002C01400004004000080040EA
:1031D000000C004000340140004001400044014028
:1031E000004801402DE9F043026A22F00102026228
:1031F000056A436882691C4C25F0020522400C6870
:1032000022F0030214438A68194E2A43174D194FBE
:10321000DFF864C0DFF86490A84207D0B04205D060
:10322000B84203D0604501D0484506D122F00808D5
:10323000CA6842EA080222F00402A84207D0B0425B
:1032400005D0B84203D0604501D0484505D14D694D
:1032500023F440731D438B692B43436084614968A9
:1032600041630262BDE8F0838FFFFEFF002C014046
:10327000003401400040014000440140004801404A
:10328000F0B5026A22F010020262056A42688369A0
:10329000194C1B4E23400C6823F4407343EA04246A
:1032A00025F020038D6843EA0513144DA84201D090
:1032B000B04206D1CF6823F0800343EA071323F01E
:1032C0004003A8420AD0B04208D00E4DA84205D013
:1032D0000D4DA84202D00D4DA84207D14D6922F4F0
:1032E000406242EA85028D6942EA85024260846159
:1032F000496881630362F0BDFF8FFFFE002C01402F
:1033000000340140004001400044014000480140B9
:10331000F0B5026A22F480720262056A4368C269EB
:10332000194C1B4E22400C6822F00302144325F472
:1033300000728D6842EA0522144DA84201D0B042C5
:1033400006D1CF6822F4006242EA072222F48062AA
:10335000A8420AD0B04208D00E4DA84205D00E4D6A
:10336000A84202D00D4DA84207D14D6923F4405325
:1033700043EA05138D6943EA05134360C461496854
:10338000C1630262F0BD00008FFFFEFF002C014010
:103390000034014000400140004401400048014029
:1033A00030B5026A22F480520262046A4268C3693C
:1033B000124D24F400542B400D6823F4407343EA6B
:1033C00005238D6844EA05340D4DA8420BD00D4D00
:1033D000A84208D00C4DA84205D00C4DA84202D0FE
:1033E0000B4DA84204D14D6922F4804242EA851275
:1033F0004260C36149680164046230BDFF8FFFFE13
:10340000002C0140003401400040014000440140D4
:103410000048014030B5026A22F480320262046A38
:103420004268436D114D2B400D681D4324F4003359
:103430000C8943EA04430E4CA0420BD00D4CA04231
:1034400008D00D4CA04205D00C4CA04202D00C4C30
:10345000A04204D14C6922F4803242EA0422426044
:10346000456549688165036230BD00008FFFFEFF3E
:10347000002C014000340140004001400044014064
:103480000048014030B5026A22F480120262046AE8
:103490004268436D114D24F400142B400D6843EA3B
:1034A00005230D8944EA05540D4DA8420BD00D4D5E
:1034B000A84208D00C4DA84205D00C4DA84202D01D
:1034C0000B4DA84204D14D6922F4802242EA8522A4
:1034D000426043654968C165046230BDFF8FFFFEED
:1034E000002C0140003401400040014000440140F4
:1034F0000048014090F82410C90706D001684A68C6
:10350000836A22F400321A434A6090F82410890733
:1035100006D501684A68C36A22F480321A434A60B9
:1035200090F82410490706D501684A68036B22F415
:1035300080221A434A6090F82410090706D50168D2
:103540004A68436B22F400421A434A6090F8241000
:10355000C90606D501688A68836B22F480521A4333
:103560008A6090F82410890606D501688A68C36BC2
:1035700022F400521A438A6090F82410490611D5AB
:1035800001684A68036C22F480121A434A60016C95
:10359000B1F5801F06D101684A68436C22F4C0026D
:1035A0001A434A6090F82410090606D501684A6853
:1035B000806C22F4002202434A607047F8B500266E
:1035C00004464667FCF7C2FF0546206800686FF0B6
:1035D0007E47000708D52B4600224FF400112046F5
:1035E000009700F069F960B92068006840070AD5C3
:1035F0002B4600224FF480012046009700F05CF932
:1036000008B10320F8BD202084F8710084F872000E
:1036100084F870600020F8BD2DE9F041044601688F
:1036200080682369E66918436369102500273343DE
:103630001843954A0B68954E334003430B6020684E
:103640004168E36821F44051194341602168A06951
:10365000914201D0236A18438B6823F430630343FB
:103660008B608B4B21688B4899420DD1D0F8880034
:1036700010F0030006D001285AD0022856D00328A3
:1036800059D157E0012556E0834B99420BD1D0F830
:10369000880010F00C0047D0042849D0082845D0F5
:1036A0000C2848D146E07D4B99420BD1D0F88800D8
:1036B00010F0300038D010283AD0202836D03028EA
:1036C00039D137E0764B99420BD1D0F8880010F011
:1036D000C00029D040282BD0802827D0C0282AD14C
:1036E00028E0704B99420ED1D0F8880010F4407059
:1036F0001AD0B0F5807F1BD0B0F5007F16D0B0F5A2
:10370000407F18D116E0914215D1D0F8880010F40E
:10371000406009D0B0F5806F0AD0B0F5006F05D0D9
:10372000B0F5406F07D105E0002504E0022502E076
:10373000042500E008255C4B00264FF40040914230
:103740003DD135B1022D07D0042D07D0082D10D161
:1037500007E0FDF763FD03E0184602E0FDF782FD98
:10376000A8B3626802EB4201814202D8B0EB023F8B
:1037700001D9012775E0DFF834815DB1022D0CD04D
:10378000042D13D0082DF4D150082905401846F116
:10379000000105E0FDF742FD0AE050084449F5E765
:1037A0000023FCF70DFDA0F5407156E0FDF75AFD32
:1037B0006268010E0302500818187141F0E7E169D0
:1037C0004FF6EF7881422FD1092DD2D200E048E0A8
:1037D000DFE805F006092005230505052600C8E7F2
:1037E000FDF71CFD01E0FDF72BFD4100D4F80400BE
:1037F00001EB5001B1FBF0F080B2A0F110014145A6
:10380000B7D84FF6F0710140C0F342000143206881
:10381000C16026E027496068EAE7FDF723FDE4E799
:103820004FF480316068E3E7092DA2D2DFE805F0AC
:1038300006091E052205050525009AE7FDF7EEFCA1
:1038400001E0FDF7FDFC0146606801EB500100BF9F
:10385000B1FBF0F080B2A0F11001414589D8216898
:10386000C860266638466666BDE8F081606803EB8E
:103870005001EDE7FDF7F6FCE5E7616800EB51006C
:10388000B0FBF1F0E6E7000000800040F369FFEFD5
:103890000038014000100240004400400048004051
:1038A000004C0040005000400024F400FFFC0F00DA
:1038B000000024F40048E8012DE9F041984617463D
:1038C0000E460446069D1DE0681C1BD02DB1FCF77A
:1038D0003DFEA0EB0800A84214D92068016821F43D
:1038E000D07101602068816821F001018160202091
:1038F00084F8710084F87200002084F870000320BE
:10390000BDE8F0812068C06936EA000004D00020DC
:10391000B842D9D00020F3E70120F9E7FEE7000024
:103920000FB4084B10B504A902AA039800F01CF8C4
:10393000044602A9002000F0BBF9204610BC5DF847
:1039400014FB0000B13C000802E008C8121F08C1C7
:10395000002AFAD170477047002001E001C1121F10
:10396000002AFBD1704700002DE9FF4F8BB088463D
:103970000546002606E025280BD0DDE90D1290470C
:103980006D1C761C28780028F5D10FB0304600F069
:1039900063B90024A146A2460122AE4900E00443D7
:1039A00015F8013F203B02FA03F00842F7D12878CE
:1039B0002A2810D06FF02F022878A0F130010929B1
:1039C00015D809EB890102EB410144F0020400EB38
:1039D00001096D1CF0E758F8041B5FEA010903D5E3
:1039E00044F40054C9F1000944F002046D1C287825
:1039F0002E2817D115F8010F44F004042A280ED000
:103A00006FF02F022878A0F1300109290AD80AEBBB
:103A10008A0102EB410100EB010A6D1CF2E758F844
:103A200004AB6D1C28786C280FD006DC4C2817D00E
:103A300068280DD06A2814D104E0742810D07A28A0
:103A40000FD10DE044F400140AE044F4801401E0C6
:103A500044F440146978814202D104F580146D1C4D
:103A60006D1C2878692865D006DC00288DD0632875
:103A700027D0642806D15DE06E2808D073282AD0AC
:103A8000752877D0DDE90D129047761CE0E0C4F38D
:103A90000250022809D003280DD0D8F800100428BD
:103AA0000DD00E6008F10408D2E0D8F80010F2172B
:103AB000C1E90062F6E7D8F800100E80F2E70E7058
:103AC000F0E718F8041B8DF8001000208DF80100B5
:103AD000EB46012003E058F804BB4FF0FF306107CC
:103AE0004FF0000701D40AE07F1C57450DDA8742EA
:103AF000FADB1BF807100029F6D106E07F1C87428D
:103B0000FCDB1BF807100029F8D1DDE90D23A9EB38
:103B100007008146214600F0B4F83044C61904E09D
:103B2000DDE90D121BF8010B90477F1EF8D22146EC
:103B3000484688E058F8040BC4F302514FF00A0BD2
:103B4000032900D100B2042900D140B2002802DAD2
:103B500040422D2102E0210505D52B218DF82410AE
:103B6000012104E006E0E10710D02021F6E708AFCC
:103B7000089113E058F8040BC4F302514FF00A0BFC
:103B8000032900D180B2042900D1C0B20021EEE7A0
:103B90005946FCF76DFB303107F8011D0028F7D1BD
:103BA000ADEB070000F1200B600702D524F4803450
:103BB00001E04FF0010ADA4502DDAAEB0B0000E05C
:103BC0000020824600EB0B0108980144A9EB01009C
:103BD0000A90E00306D4DDE90D2321460A9800F09F
:103BE00050F806444FF0000908E009A911F809004F
:103BF000DDE90D12904709F10109761C0899894504
:103C0000F3DBE0030CD5DDE90D2321460A9800F033
:103C100038F8064404E0DDE90D1230209047761CA8
:103C2000BAF10001AAF1010AF5DC05E0DDE90D12A7
:103C300017F8010B9047761CBBF10001ABF1010BAB
:103C4000F4DC0A982146DDE90D2300F008F806446B
:103C50006D1C97E60928010030BCBDE8C08F2DE936
:103C6000F041044600251E461746880404D405E0AA
:103C700039462020B0476D1C641EF9D52846BDE8A2
:103C8000F0812DE9F041044600251E469046C80308
:103C900001D5302700E02027880404D505E04146FF
:103CA0003846B0476D1C641EF9D52846BDE8F08142
:103CB0000A68531C0B60107070470000A4B0FCF73A
:103CC0008BFFFFF7CEF9FEF769FEFFF745F8FEF729
:103CD000D7FEFEF7F9FEFEF719FFFEF739FFFEF7F4
:103CE00091FFFEF7C3FFFFF701F82A222E4911A822
:103CF000FCF79AFA2C4C608DADF86E00E06A1C90CF
:103D0000206B1D900D2204F134011EA8FCF78CFAE3
:103D100094F841008DF8850094F842008DF88600F3
:103D2000606C2290A06C2390442213A96846FCF793
:103D30007BFA1E49DDE91123481EFEF7FCF91B4DF5
:103D40006D1EA86801282AD12A2204F14C0111A86D
:103D5000FCF76AFA4C34608DADF86E00E06A1C9096
:103D6000206B1D900D2204F134011EA8FCF75CFAB3
:103D700094F841008DF8850094F842008DF8860093
:103D8000606C2290A06C2390442213A96846FCF733
:103D90004BFADDE91123E91C481EFEF7CCF9D5E901
:103DA0000110FEF7F1FAFAE76000002001000020A0
:103DB00000000000000000000102030406070809DB
:103DC000A0860100400D0300801A060000350C009B
:103DD00040420F0080841E0000093D0000127A005E
:103DE0000024F40000366E010048E801006CDC029B
:103DF0000000000001020304183E0008000000203B
:103E000014000000483900082C3E0008140000206F
:103E1000BC09000058390008000000000100000043
:0C3E2000000000000000000000093D0050
:040000050800018965
:00000001FF
